001STERN               ROBERT    FP07500000
002STERN               NANCY     FP08500000
003SMITH               JOHN      AP04000000
004WASHINGTON          GEORGE    IP04000000
005JONES               SAM       AS06000000
006PHILLIPS            TOM       AS06000000
007JOHNSON             DAVID     IP05000000
008THOMAS              STEVE     AP08000000
009SMITH               ADAM      FP11000000
010DOE                 JOHN      IP04000000
